:03000000020A9A57
:0C0A9A00787FE4F6D8FD758127020AE1A0
:080C800002180001021A000134
:030CA70002000048
:100C3F00E4FDFCC3ED9FEE6480F8EC6480985015E2
:100C4F00E4FBFA0BBB00010ABA04F8BBFBF50DBDC0
:050C5F0000010C80DE25
:010C6400226D
:070C9900EE4F24FF92A2229E
:070CA000EE4F24FF92A12298
:080C8900D2A03084FDC2A022BC
:030C1400120C8936
:100C1700308307751E00751F01223082077520007B
:100C2700752101223081077522007523012230804A
:080C3700DF7524007525012280
:04080000AF19AE1866
:100804008F828E837F327E00120C3FC2A6C2A5C2A5
:10081400A4C2A3E582640145837025D2A6E51F45E1
:100824001E6008E4F51EF51F120C14E51145106056
:100834000FE51B6401451A7007120C14F510F5112D
:10084400E582640245837041D2A5E5214520600B11
:10085400E4F520F521120C89120C17E513451260FA
:1008640012E51B6401451A700A120C89120C17F563
:1008740012F513E50B450A6010E51B451A700A12C0
:100884000C89120C17F50AF50BE582640345837095
:1008940041D2A4E5234522600BE4F522F523120C92
:1008A40017120C89E51545146012E51B6401451AFD
:1008B400700A120C89120C17F514F515E50D450C88
:1008C4006010E51B451A700A120C89120C17F50CFE
:1008D400F50DE582640445837029D2A3E5254524FA
:1008E400600BE4F524F525120C89120C17E50F456D
:1008F4000E6010E51B451A700A120C89120C17F5CC
:040904000EF50F22BB
:100BC800309005751C75801E309105751C75802147
:100BD800309205751C758024309305751C75802727
:100BE800309408751C64751D31D322309508751C26
:100BF80064751D32D322309608751C64751D33D375
:0C0C0800223097BC751C64751D34D3228B
:03000300020B7875
:100B7800C0E0C0F0C083C082C0D075D000C000C043
:100B880001C002C003C004C005C006C007120800A7
:100B9800E4FFFE120C99120CA0D2A07FE87E03128B
:100BA8000C3F120CA7D007D006D005D004D003D034
:100BB80002D001D000D0D0D082D083D0F0D0E032A3
:03001300020A0DD1
:100A0D00C0E0C083C082C0D075D000C000C002C09D
:100A1D0003C004C005C006C007E519640145187080
:100A2D0005F51A751B01E519640445187004F51ACE
:100A3D00F51BE51B6401451A701B0519E5197002BC
:100A4D000518E4FFFE120CA07F05120C3F7F01126A
:100A5D000C99120800E51B451A701BE51915197044
:100A6D00021518E4FFFE120C997F05120C3F7F0151
:100A7D00120CA0120800D007D006D005D004D00368
:0D0A8D00D002D000D0D0D082D083D0E03293
:100C6500EE700EEF14600704700775A8812275A851
:020C75008522D6
:100908007F017E00120C65E51CB47507E51DB43146
:100918000280047E007F00EF64014E700EE51964CA
:100928000145187006120C89120C17E51CB4750BDA
:10093800E51DB432067E007F0180047E007F00EF53
:1009480064014E7005F512751301E51CB4750BE5CD
:100958001DB433067E007F0180047E007F00EF64B3
:10096800014E7005F514751501E51CB4750BE51DF0
:10097800B434067E007F0180047E007F00EF6401AE
:100988004E7005F516751701E51CB4640BE51DB42A
:1009980031067E007F0180047E007F00EF64014EF7
:1009A8007005F508750901E51CB4640BE51DB43242
:1009B800067E007F0180047E007F00EF64014E7098
:1009C80005F50A750B01E51CB4640BE51DB4330687
:1009D8007E007F0180047E007F00EF64014E700579
:1009E800F50C750D01E51CB4640BE51DB434067EE9
:1009F800007F0180047E007F00EF64014E7005F5E2
:050A08000E750F012234
:100B26007580FF7590FF75A0FF75B0FF7F647E002E
:100B3600120C3FE4F580F590F5A0F5187519017FC4
:100B460001120804751A00751B01E4F526F527E560
:100B56002725E0241EF8E4F608F60527E5277002A7
:100B660005266404452670E7E4FFFE120C6575B899
:020B760001225A
:090C7700120BC8500312090822F7
:080C9100120B26120C7780FB08
:100AA600020C91E493A3F8E493A34003F68001F2C9
:100AB60008DFF48029E493A3F85407240CC8C33351
:100AC600C4540F4420C8834004F456800146F6DF20
:100AD600E4800B0102040810204080900C80E47E24
:100AE600019360BCA3FF543F30E509541FFEE49315
:100AF600A360010ECF54C025E060A840B8E493A3DC
:100B0600FAE493A3F8E493A3C8C582C8CAC583CA06
:100B1600F0A3C8C582C8CAC583CADFE9DEE780BEBE
:010C8800006B
:00000001FF
